:100000000C9446000C945D000C945D000C945D0013
:100010000C945D000C945D000C945D000C945D00EC
:100020000C945D000C945D000C945D000C945D00DC
:100030000C945D000C945D000C945D000C945D00CC
:100040000C945D000C945D000C945D000C945D00BC
:100050000C945D000C945D000C945D000C945D00AC
:100060000C945D000C945D000C945D000C945D009C
:100070000C945D000C945D000C945D000C945D008C
:100080000C945D000C945D000C945D0011241FBE67
:10009000CFEFD0E4DEBFCDBF11E0A0E0B1E0EAEAEF
:1000A000F1E000E00BBF02C007900D92AE30B10747
:1000B000D9F70E9488000C94D3000C940000CF93D1
:1000C000DF9300D01F92CDB7DEB789837B836A832D
:1000D00089818A3031F48A819B81BC018DE00E9444
:1000E0005F0080EC90E0FC018081882F90E08072BE
:1000F0009927892BB1F386EC90E02981FC012083BC
:1001000080E090E00F900F900F90DF91CF910895D5
:10011000CF93DF9300D0CDB7DEB781E290E0FC0152
:10012000108282E290E02FEFFC01208387E290E0D2
:100130002FEFFC01208388E290E0FC0110821A82FC
:10014000198280E290E0FC01808180958F708A8323
:100150008FE389838A818D3000F589818E7F898341
:100160008A818A30D0F489818C7F89838A81873023
:10017000A0F48981887F89838A81853070F480E743
:1001800089838A81833048F48981807E89838A814A
:10019000882319F48981807C898388E290E0298111
:0A01A000FC012083CECFF894FFCFBE
:0E01AA0000000002000000005F0000000000E6
:00000001FF
